:100000000C942A000C9447000C9447000C94470071
:100010000C9447000C9447000C9447000C94470044
:100020000C9447000C9447000C9447000C94B500C6
:100030000C9447000C9447000C9447000C94470024
:100040000C9447000C9447000C9447000C94470014
:100050000C94470011241FBECFE5D8E0DEBFCDBF12
:1000600010E0A0E6B0E0E8ECF1E002C005900D92EF
:10007000AA36B107D9F710E0AAE6B0E001C01D9298
:10008000AC36B107E1F70E9465000C94E2000C94D5
:100090000000DF93CF93CDB7DEB7E3E5F0E084E86F
:1000A0008083E2E5F0E01082A9E5B0E0E9E5F0E068
:1000B000808181608C93AFE5B0E0EFE5F0E0808176
:1000C00080688C93CF91DF910895DF93CF93CDB764
:1000D000DEB72F970FB6F894DEBF0FBECDBFCE01AF
:1000E00001969C878B87E0E6F0E0FE87ED87FAE0DB
:1000F000FF87ED85FE8500808D859E8501969E8714
:100100008D87EB85FC8500828B859C8501969C877D
:100110008B879F8591509F87EF85EE2351F7EAE308
:10012000F0E08EEF8083A4E3B0E0E4E3F0E08081D0
:1001300080648C93EBE3F0E089818083A5E3B0E0F9
:10014000E5E3F0E0808180648C930E944900ABE39A
:10015000B0E080916A00282F30E0CE010196FC01CA
:10016000E20FF31F80818C93F2CF1F920F920FB694
:100170000F9211248F93DF93CF93CDB7DEB7809189
:100180006B008F5F80936B0080916B00853F91F4D3
:1001900080916A00893030F480916A008F5F80938B
:1001A0006A0006C080916A00893011F410926A00DA
:1001B00010926B00CF91DF918F910F900FBE0F9037
:0801C0001F901895F894FFCF81
:0A01C8007E0CB69ECCDAFA0EFEDEC5
:00000001FF
