:100000000C942A000C943C000C943C000C943C0092
:100010000C943C000C943C000C943C000C943C0070
:100020000C943C000C943C000C9473000C943C0029
:100030000C943C000C943C000C943C000C943C0050
:100040000C943C000C943C000C943C000C943C0040
:100050000C943C0011241FBECFE5D8E0DEBFCDBF1D
:1000600010E0A0E6B0E001C01D92A136B107E1F7B3
:100070000E945E000C94A2000C940000DF93CF93CA
:10008000CDB7DEB7E3E5F0E08DE88083E2E5F0E0B0
:100090001082ECE5F0E08AEF8083A9E5B0E0E9E5C5
:1000A000F0E0808182608C93AFE5B0E0EFE5F0E0B6
:1000B000808180688C93CF91DF910895DF93CF93F7
:1000C000CDB7DEB7A4E3B0E0E4E3F0E08081816087
:1000D0008C93A5E3B0E0E5E3F0E080818E7F8C9324
:1000E0000E943E00FFCF1F920F920FB60F92112475
:1000F0008F939F93AF93BF93EF93FF93DF93CF9330
:10010000CDB7DEB7809160008F5F809360008091F3
:100110006000803251F4A5E3B0E0E5E3F0E09081C7
:1001200081E089278C9310926000CF91DF91FF913D
:10013000EF91BF91AF919F918F910F900FBE0F9054
:080140001F901895F894FFCF01
:00000001FF
