:100000000C942A000C9447000C9447000C94470071
:100010000C9447000C9447000C9447000C94470044
:100020000C9447000C9447000C9447000C94C500B6
:100030000C9447000C9447000C9447000C94470024
:100040000C9447000C9447000C9447000C94470014
:100050000C94470011241FBECFE5D8E0DEBFCDBF12
:1000600010E0A0E6B0E0ECE2F2E002C005900D92F4
:10007000AA36B107D9F710E0AAE6B0E001C01D9298
:10008000AE36B107E1F70E9465000C9414010C94A0
:100090000000DF93CF93CDB7DEB7E3E5F0E084E86F
:1000A0008083E2E5F0E01082A9E5B0E0E9E5F0E068
:1000B000808181608C93AFE5B0E0EFE5F0E0808176
:1000C00080688C93CF91DF910895DF93CF93CDB764
:1000D000DEB7EAE3F0E08EEF8083A4E3B0E0E4E390
:1000E000F0E08081806C8C93EBE3F0E08091600025
:1000F0008083A5E3B0E0E5E3F0E0808180648C9349
:10010000A5E3B0E0E5E3F0E080818F778C930E9477
:10011000490080916C00882F90E08170907000976A
:10012000D1F4A5E3B0E0E5E3F0E0808180648C9356
:10013000A5E3B0E0E5E3F0E080818F778C93ABE35B
:10014000B0E080916A00882F90E0FC01E05AFF4FF8
:1001500080818C93DECFA5E3B0E0E5E3F0E0808121
:1001600080688C93A5E3B0E0E5E3F0E080818F7BCD
:100170008C93ABE3B0E080916B00882F90E0FC01A2
:10018000E05AFF4F80818C93C4CF1F920F920FB61D
:100190000F9211248F939F93DF93CF93CDB7DEB748
:1001A00080916D008F5F80936D0080916D00893F1D
:1001B00029F580916A00893030F480916A008F5F60
:1001C00080936A0016C080916A00893091F4109281
:1001D0006A0080916B00893030F480916B008F5FF2
:1001E00080936B0006C080916B00893011F41092EF
:1001F0006B0010926D0010926C000DC080916D002C
:10020000882F90E081709070009729F480916C00A5
:100210008F5F80936C00CF91DF919F918F910F90B2
:0C0220000FBE0F901F901895F894FFCFB0
:0A022C007E0CB69ECCDAFA0EFEDE60
:00000001FF
