:100000000C942A000C9434000C9434000C943400AA
:100010000C9434000C9434000C9434000C94340090
:100020000C9434000C9434000C9434000C94340080
:100030000C9434000C9434000C9434000C94340070
:100040000C9434000C9434000C9434000C94340060
:100050000C94340011241FBECFE5D8E0DEBFCDBF25
:100060000E9436000C94B9000C940000DF93CF93EB
:10007000CDB7DEB7A4E3B0E0E4E3F0E080818160D7
:100080008C93A4E3B0E0E4E3F0E0808182608C93A1
:10009000A7E3B0E0E7E3F0E080818E7F8C93A7E3F5
:1000A000B0E0E7E3F0E080818D7F8C93A5E3B0E0E2
:1000B000E5E3F0E0808181608C93A5E3B0E0E5E3C7
:1000C000F0E0808182608C93E6E3F0E08081882F0D
:1000D00090E081709070982F81E089278823C1F487
:1000E000E6E3F0E08081882F90E0827090700097C6
:1000F00079F0A5E3B0E0E5E3F0E080818E7F8C93BA
:10010000A5E3B0E0E5E3F0E080818D7F8C93DCCF68
:10011000E6E3F0E08081882F90E081709070882382
:1001200041F0A5E3B0E0E5E3F0E080818E7F8C93C1
:10013000CBCFE6E3F0E08081882F90E08270907072
:10014000009741F0A5E3B0E0E5E3F0E080818D7F2A
:100150008C93BACFA5E3B0E0E5E3F0E08081816065
:100160008C93A5E3B0E0E5E3F0E0808182608C93BE
:06017000ABCFF894FFCFB5
:00000001FF
